:020000040800F2
:1000000008040020AD010008970300081D02000845
:100010009503000819020008810400080000000090
:100020000000000000000000000000009B0300082A
:100030001B02000800000000990300089D0300084F
:10004000C7010008C7010008C7010008C701000870
:10005000C7010008C7010008C7010008C701000860
:10006000C7010008C7010008C7010008C701000850
:10007000C7010008C7010008C7010008C701000840
:10008000C7010008C7010008C70100080000000000
:10009000000000000000000000000000C701000890
:1000A000C7010008C7010008C7010008C701000810
:1000B000C7010008C7010008C7010008C701000800
:1000C000C7010008C7010008C7010008C7010008F0
:1000D000C7010008C7010008C701000800000000B0
:1000E000C7010008C7010008C701000800000000A0
:1000F000000000000000000000000000C701000830
:1001000000000000C7010008C7010008C70100087F
:1001100000000000000000000000000000000000DF
:10012000C7010008C7010008C7010008C70100088F
:10013000C7010008000000000000000000000000EF
:10014000000000000000000000000000C7010008DF
:10015000C7010008C7010008C7010008C70100085F
:10016000C7010008C70100080000000000000000EF
:10017000000000000000000000000000000000007F
:1001800000000000C701000800000000000000009F
:10019000C7010008DFF810D000F02CF80048004735
:1001A000A1040008AFF3008008040020064880473F
:1001B00006480047FEE7FEE7FEE7FEE7FEE7FEE74C
:1001C000FEE7FEE7FEE7FEE7710400089501000880
:1001D000D2B201E000F8012B491EFBD27047002289
:1001E000F6E710B513460A4604461946FFF7F0FF36
:1001F000204610BD064C074D06E0E06840F00103C4
:1002000094E8070098471034AC42F6D3FFF7C6FFD6
:100210005005000870050008FEE77047FEE7000083
:10022000044908B50A6802430A6009680140009160
:1002300008BD000030380240F0B50A680F2692FA77
:10024000A2F2B2FA82F303248AE001279F4015EA62
:1002500007027DD04D68012D01D0022D1BD18D6884
:10026000876892FAA2FCBCFA8CFC4FEA4C0C04FAA8
:100270000CFC27EA0C0792FAA2FCBCFA8CFC4FEAB1
:100280004C0C05FA0CF52F438760CD684768554341
:1002900097432F4347600F69D0F80CC092FAA2F53C
:1002A000B5FA85F54FEA450E04FA0EF52CEA050C71
:1002B00092FAA2F5B5FA85F56D00AF404CEA070C4D
:1002C000C0F80CC04D68022D33D192FAA2F5B5FAF0
:1002D00085F5082D15D2D1F814C0056A92FAA2F757
:1002E000B7FA87F7BF0006FA07F7BD4392FAA2F7FD
:1002F000B7FA87F7BF000CFA07FC45EA0C05056260
:1003000017E0D1F814E0476A150A95FAA5FCBCFA83
:100310008CFC4FEA8C0C06FA0CFC95FAA5F5B5FAA4
:1003200085F5AD0027EA0C070EFA05FE47EA0E0731
:1003300047624D68076892FAA2FCBCFA8CFC4FEA4F
:100340004C0C04FA0CFE27EA0E0792FAA2F200E027
:1003500005E0B2FA82F2520095402F4307605B1C21
:100360000A681546DA407FF470AF0020F0BD4FF404
:100370007A71B0FBF1F14FF0E020491E416100219C
:1003800081610521016170470149086070470000E3
:1003900000000020FEE7FEE770477047704700004E
:1003A0002D4810B5016821F0070141F002010160FC
:1003B000016801F007010229FAD12848016821F4F7
:1003C000404141F4004101602548016841F4803119
:1003D00001600168C1F340410029FAD02049214A57
:1003E000091D0B68204C23401A430A600A6822F456
:1003F00040320A60016841F0807101600168C1F318
:1004000040610029FAD016480830016821F0F00157
:100410000160016821F4E05141F4805101600168FC
:1004200021F460410160016821F0030141F0020103
:100430000160016801F00C010829FAD10B4C20463B
:10044000FFF795FF2046FFF79FFF05488C300168B6
:1004500021F08071016010BD003C0240007000403E
:1004600000380240192A40000080BFFF00BD01058E
:100470000248016841F470010160704788ED00E0B6
:10048000FEE702E008C8121F08C1002AFAD170472F
:100490007047002001E001C1121F002AFBD1704704
:1004A000264886B0016841F480410160006800F48C
:1004B000804000902148001F016841F08051016098
:1004C00000681F4900F08050009008684FF6FF0256
:1004D00010401C4A40F44070104308600868C0F3A4
:1004E0000220C0F10701042900D90421021D072AB6
:1004F00001D2002000E0C01E012505FA01F4641EAF
:10050000114984402001002681F8140DFFF748FFAF
:1005100018216846FFF763FE0420FFF781FE802064
:10052000FFF77EFE094869030A0482618DE86200D4
:10053000039669460496FFF77FFEFEE744380240C3
:100540000CED00E00000FA050FE000E000080240BA
:10055000700500080000002004000000820400086C
:100560007405000804000020040400009204000840
:040570000024F4006F
:040000050800019559
:00000001FF
